:100000000C9485010C94AD010C94AD010C94AD01E0
:100010000C94AD010C94AD010C94AD010C94AD01A8
:100020000C94AD010C94AD010C9475140C94E41473
:100030000C94AD010C94AD010C94AD010C94AD0188
:100040000C94AD010C94AD010C94AD010C94AD0178
:100050000C94AD010C94AD010C94AD010C946E1791
:100060000C94AD010C943C170C9416170C94AD0134
:100070000C94AD010C94AD010C94AD010C94AD0148
:100080000C94AD010C94AD010C94AD010C94AD0138
:100090000C94AD010C94AD010C94AD010C94AD0128
:1000A0000C94AD010C94AD010C94AD01080000005E
:1000B000BE922449123EABAAAA2ABECDCCCC4C3E5D
:1000C00000000080BEABAAAAAA3E00000000BF004C
:1000D0000000803F0000000000084178D3BB438748
:1000E000D1133D190E3CC3BD4282AD2B3E68EC825C
:1000F00076BED98FE1A93E4C80EFFFBE01C4FF7FE1
:100100003F000000000000407A10F35A00A0724E39
:1001100018090010A5D4E80000E87648170000E4AC
:100120000B54020000CA9A3B000000E1F5050000F4
:1001300080969800000040420F000000A086010059
:100140000000102700000000E80300000000640029
:10015000000000000A000000000001000000000094
:100160002C76D888DC674F0823DFC1DFAE59E1B1B8
:10017000B796E5E3E453C63AE651997696E8E6C2C7
:100180008426EB898C9B62ED407C6FFCEFBC9C9FCE
:1001900040F2BAA56FA5F490055A2AF75C936B6CF0
:1001A000F9676DC11BFCE0E40D47FEF520E6B500E4
:1001B000D0ED902E0300943577050080841E080052
:1001C00000204E0A000000C80C333333330F986E02
:1001D00012831141EF8D2114893BE65516CFFEE6BF
:1001E000DB18D1844B381BF77C1D901DA4BBE42485
:1001F000203284725E228100C9F124ECA1E53D2702
:1002000000000000240027002A002D003000727535
:100210006E2D6272696467650A000A000A000706AB
:1002200005040100080A0B0C0D09080B000202026C
:100230000100090400000102020000052400100171
:100240000524010101042402060524060001070516
:10025000810310004009040100020A0000000705A4
:100260000202400000070583024000000403090465
:1002700012010002EF02014041234180000101020E
:10028000030141726475696E6F204C4C43004172EA
:100290006475696E6F2059756E00000000002500BE
:1002A00028002B002E00310004040404040304057C
:1002B0000202020204030202020206060606060603
:1002C00004040202020404040802011040804010E9
:1002D000204080408008020401804020100201106C
:1002E0008010204040200000000200090F000003A1
:1002F0000401000C000000000000000000000000ED
:10030000000000000000B817C81C11241FBECFEF6A
:10031000DAE0DEBFCDBF23E0AEECB1E001C01D925C
:10032000A03AB207E1F711E0A0E0B1E0E6EFF8E4AF
:1003300002C005900D92AE3CB107D9F711E0C4E8B8
:10034000D1E004C02197FE010E945C22C338D1078E
:10035000C9F70E948E180C946E240C940000AF9282
:10036000BF92CF92DF92EF92FF920F931F93CF93A2
:10037000DF9300D0CDB7DEB75C01D12CC12CCA14FD
:10038000DB04A0F040911503509116036091170310
:1003900070911803E0913003F091310380912C03A8
:1003A00090912D03099590E080E030C0E0913203F8
:1003B000F091330380912E0390912F0309957B01D7
:1003C0008C011E141F0410061106F4F41A821982FF
:1003D00060911E0370911F036C0D7D1DE0912A0337
:1003E000F0912B039E012F5F3F4FA5014C195D0932
:1003F00080912603909127030995009739F489810C
:100400009A81C80ED91EBBCF8CEF9FEF0F900F9033
:10041000DF91CF911F910F91FF90EF90DF90CF90E0
:10042000BF90AF9008958F929F92AF92BF92CF925C
:10043000DF92EF92FF920F931F93CF93DF9300D041
:10044000CDB7DEB79C01260F371F40911C0350919A
:100450001D034217530708F44CC05B014C01D12C1B
:10046000C12CCA14DB0418F090E080E033C0E091A6
:100470003203F091330380912E0390912F0309955D
:100480007B018C011E141F04100611060CF51A8244
:1004900019826091200370912103C4018C0D9D1D70
:1004A000680F791FE0912803F09129039E012F5FC7
:1004B0003F4FA5014C195D098091260390912703B8
:1004C0000995009739F489819A81C80ED91EC9CF40
:1004D0008CEF9FEF0F900F90DF91CF911F910F91B5
:1004E000FF90EF90DF90CF90BF90AF909F908F9054
:1004F00008958FEF9FEFEECF109234038091F702B3
:100500009091F802DC01ED91FC910488F589E02DD1
:1005100009948091F7029091F802009711F480E01D
:100520000895DC01ED91FC910688F789E02D09958D
:100530008130A9F7809134030895E3EFF2E024912C
:10054000E4EDF2E03491E5EBF2E09491992309F4C3
:1005500030C02223E9F021502F30D0F4E22FF0E018
:10056000EC54FD4F0C945C22E202E602C302DA0274
:10057000DE02C802C802C802E902EF02F302F70273
:10058000FD02C8020103209180002F772093800094
:10059000E92FF0E0EE0FFF1FE656FD4FA591B49155
:1005A0009FB7F894EC91811132C030953E233C9373
:1005B0009FBF0895209180002F7DE8CF209180007B
:1005C000277FE4CF24B52F7724BDE2CF24B52F7D3C
:1005D000FBCF209190002F7720939000D9CF2091CE
:1005E00090002F7DF9CF20919000277FF5CF2091AB
:1005F000C0002F772093C000CBCF2091C0002F7D6B
:10060000F9CF2091C200277F2093C200C1CF3E2B9B
:10061000CECFFC018091F001882311F13FB7F8940F
:1006200082E08093E9002091F200822F90E018167A
:10063000190614F481E090E0882339F0289844E604
:100640004093EF014091F1004083222339F0209143
:10065000F200211103C02BE62093E8003FBF08956C
:100660008FEF9FEF08952FB7F89483E08093E90010
:100670009091E800892F807295FF04C09091F2005C
:1006800080E4891B2FBF08958091E70181110DC07F
:1006900082E08093E30184E08093E4011092E6011C
:1006A0001092E50181E08093E70183EE91E00895E7
:1006B000CF93DF931F92CDB7DEB76983DC01ED9155
:1006C000FC910280F381E02D41E050E0BE016F5FBC
:1006D0007F4F09950F90DF91CF91089583E080932C
:1006E000E9008091F200882319F08AE38093E80002
:1006F00008950E94330390E00895CF93DF931F92F3
:10070000CDB7DEB7FC018485958597FD08C02FEF36
:100710003FEF358724870F90DF91CF910895CE0169
:1007200001960E940903019719F4898190E0F3CFA3
:100730008FEF9FEFF0CF0F931F93CF93DF931F9215
:10074000CDB7DEB78C01FC018485958597FF0BC082
:10075000CE0101960E940903019771F4898190E00E
:10076000F80195878487F801848595850F90DF913E
:10077000CF911F910F9108958FEF9FEFF1CFFC0163
:100780008485958597FD0BC09FB7F89482E0809390
:10079000E9008091F2009FBF90E0019608959FB715
:1007A000F89482E08093E9008091F2009FBF90E08E
:1007B00008954091DD015091DE012091DB013091DF
:1007C000DC0142175307B4F49091E8009570E1F30F
:1007D0009091E80092FD19C08093F1008091DD01B5
:1007E0009091DE0101968F739927892B19F48EEF72
:1007F0008093E8008091DD019091DE010196909355
:10080000DE018093DD0181E0089580E00895EF929C
:10081000FF920F931F93CF93DF93F82E192FE62E9D
:10082000042F81E0860F880F0E94D90383E00E9485
:10083000D903CF2DD12FEC0EFD2EF11CCE15DF05E7
:10084000B9F007FF13C0FE0184910E94D903182F4D
:1008500080E00E94D903812321968111EFCFDF919F
:10086000CF911F910F91FF90EF9008958881EDCF68
:1008700081E0F5CFDF92EF92FF920F931F93CF931A
:10088000DF93D82E8A01EB017B01E40EF51ECE1515
:10089000DF0559F0D7FE12C0FE0184910E94D903F2
:1008A00021968111F4CF0FEF1FEFC801DF91CF9197
:1008B0001F910F91FF90EF90DF9008958881EECF08
:1008C0000F931F93CF93DF931F92CDB7DEB782E0D4
:1008D000898342E450E06AE272E080E80E943A04D0
:1008E0000E944403DC0112960D911C910115110523
:1008F00089F0D801ED91FC910280F381E02DBE01D9
:100900006F5F7F4FC801099597FD04C0F80100850E
:100910001185ECCF89810F90DF91CF911F910F91BD
:100920000895615030F02091F100FC012083019680
:10093000F8CF289884E68093EF010895CF93DF9352
:10094000E901DC018D919C91DC01ED91FC9102802B
:10095000F381E02D099599838883892B29F090E014
:1009600080E0DF91CF9108958AEF9FEFFACF08954D
:10097000EF92FF920F931F93CF93DF938C017B0134
:10098000D0E0C0E0F701EC0FFD1F6491662361F039
:10099000D801ED91FC910190F081E02DC8010995FD
:1009A000892B11F02196EECFCE01DF91CF911F91CF
:1009B0000F91FF90EF900895AF92BF92CF92DF9288
:1009C000EF92FF920F931F93CF93DF936C017B0104
:1009D0008B01040F151FEB015E01AE18BF08C01795
:1009E000D10759F06991D601ED91FC910190F08108
:1009F000E02DC6010995892B79F7C501DF91CF91CB
:100A00001F910F91FF90EF90DF90CF90BF90AF902C
:100A10000895FC01538D448D252F30E0842F90E004
:100A2000821B930B541710F0CF96089501970895E9
:100A3000FC01918D828D981761F0A28DAE0FBF2FB2
:100A4000B11D5D968C91928D9F5F9F73928F90E008
:100A500008958FEF9FEF0895FC01918D828D981777
:100A600031F0828DE80FF11D858D90E008958FEFB4
:100A70009FEF0895FC01918D228D892F90E0805C7D
:100A80009F4F821B91098F73992708958DE492E0FF
:100A90000E943A0521E0892B09F420E0822F089575
:100AA00080E090E0892B29F00E94460581110C948A
:100AB00000000895FC01A48DA80FB92FB11DA35A01
:100AC000BF4F2C91848D90E001968F739927848F6E
:100AD000A689B7892C93A089B1898C9182748C9353
:100AE000938D848D981306C00288F389E02D808150
:100AF0008F7D80830895EF92FF920F931F93CF9382
:100B0000DF93EC0181E0888F9B8D8C8D981319C049
:100B1000E889F989808185FF14C09FB7F894EE8930
:100B2000FF896083E889F9898081827480839FBF0F
:100B300081E090E0DF91CF911F910F91FF90EF90B6
:100B40000895F62E0B8D10E00F5F1F4F0F731127C6
:100B5000E02E8C8D8E110CC00FB607FCFACFE88901
:100B6000F989808185FFF5CFCE010E945A05F1CF2A
:100B7000EB8DEC0FFD2FF11DE35AFF4FF0829FB775
:100B8000F8940B8FEA89FB8980818062CFCFCF9365
:100B9000DF93EC01888D8823B9F0AA89BB89E889A5
:100BA000F9898C9185FD03C0808186FD0DC00FB64B
:100BB00007FCF7CF8C9185FFF2CF808185FFEDCFC9
:100BC000CE010E945A05E9CFDF91CF9108953FB73A
:100BD000F8948091D3019091D401A091D501B09166
:100BE000D60126B5A89B05C02F3F19F00196A11D7F
:100BF000B11D3FBFBA2FA92F982F8827BC01CD0167
:100C0000620F711D811D911D42E0660F771F881FC5
:100C1000991F4A95D1F708958F929F92AF92BF92F4
:100C2000CF92DF92EF92FF924B015C010E94E705A9
:100C30006B017C010E94E7056C197D098E099F09F3
:100C4000683E734081059105A8F321E0821A91085E
:100C5000A108B10888EEC80E83E0D81EE11CF11C83
:100C600081149104A104B10429F7FF90EF90DF9063
:100C7000CF90BF90AF909F908F9008958F929F924A
:100C8000AF92BF92CF92DF92EF92FF920F931F939A
:100C9000CF93DF936C017B018A0180910B01882344
:100CA00009F45CC08091F001882309F457C0809159
:100CB000E20180FF05C08091E00082608093E00047
:100CC000E801B12C8AEFA82E93E0892E2AE3922E18
:100CD000209711F4BB20D9F10E94330381110AC07F
:100CE000AA94AA20D9F161E070E080E090E00E942F
:100CF0000C06EECF8C171D0611F00CF08C2F9FB751
:100D0000F8948092E9002091E80025FD02C09FBF81
:100D1000DFCF282F30E0C21BD30BF701815020F02A
:100D200041914093F100FACFE20EF31EBB2021F077
:100D30009092E800B12CEBCF8091E80085FDE7CFE1
:100D40009092E800BB24B394209709F3F3CF5D9809
:100D500084E68093E101101611063CF081E090E0FA
:100D6000F6019383828310E000E0C801DF91CF9108
:100D70001F910F91FF90EF90DF90CF90BF90AF90B9
:100D80009F908F9008952FB7F8946091CF01709144
:100D9000D0018091D1019091D2012FBF0895CF92BF
:100DA000DF92EF92FF92CF93DF93EC016A017B0118
:100DB000EC81FD81309781F00995C60ED71EE81EA3
:100DC000F91EC882D982EA82FB82DF91CF91FF901F
:100DD000EF90DF90CF9008950E94C306EECFCF92A0
:100DE000DF92EF92FF92DC011496ED91FC91159742
:100DF000CD90DD90ED90FC90309771F00995A701B2
:100E00009601261B370B480B590BCA01B901FF90FD
:100E1000EF90DF90CF9008950E94C306F0CF0F931C
:100E20001F93CF93DF93EC01B0E0A0E0E881F9815C
:100E30008D010F5F1F4FCB018E1B9F0B80179107FA
:100E400058F1822F8F7797E05695479537952795DC
:100E50009A95D1F7211531054105510509F08068B2
:100E6000EA0FFB1F8083211531054105510569F407
:100E700088819981800F911F9983888390E080E019
:100E8000DF91CF911F910F910895D8010430110582
:100E900069F68EEF9FEFF4CF8FEF9FEFF1CF4F9278
:100EA0005F926F927F929F92AF92BF92CF92DF92AA
:100EB000EF92FF920F931F93CF93DF936C018A0100
:100EC000DA011D921D921D921C921397DC01ED9187
:100ED000FC917B01EE1AFF0A5F01D0E0C0E0412CDB
:100EE000512C320143942196EC16FD06E0F1C530F9
:100EF000D105E1F1D5019D905D01A92DAF77B0E05D
:100F0000A30192010E948520D8012D913D914D9120
:100F10005C911397260F371F481F591F2D933D9340
:100F20004D935C93139787E0440C551C661C771C0B
:100F30008A95D1F797FCD7CFEC0FFD1FD601ED9323
:100F4000FC9390E080E0DF91CF911F910F91FF9093
:100F5000EF90DF90CF90BF90AF909F907F906F9079
:100F60005F904F9008958FEF9FEFEDCF8EEF9FEF43
:100F7000EACFEF92FF920F931F93CF93DF9300D0AE
:100F800000D000D0CDB7DEB7D9017C01E60EF71E48
:100F90008E159F0589F1FC013191FE83ED83832F2E
:100FA000807F90E064E0959587956A95E1F78417D6
:100FB0009507E1F533FB332730F93C93AE014F5FE2
:100FC0005F4FB701CE0105960E944F07009709F5C4
:100FD00049815A816B817C814230510561057105DF
:100FE00041F5ED81FE81EE1AFF0A22E0E216F104DE
:100FF00030F4F801118210828FEF9FEF0AC0208138
:1010000030E0322F22274181240F311DF801318336
:10101000208326960FB6F894DEBF0FBECDBFDF91BA
:10102000CF911F910F91FF90EF90089587EF9FEF61
:10103000F0CF88EF9FEFEDCFFC01A081B1816A1B5B
:101040007B0B6230710568F05C93A081B1811196D1
:101050004C938081918102969183808390E080E01F
:1010600008958FEF9FEF0895AF92BF92CF92DF92D6
:10107000EF92FF920F931F93CF93DF9300D0CDB7E2
:10108000DEB77C01E60EF71EE1E0F0E02630310528
:1010900011F0F0E0E0E0EE0FFF1F74E0220F331FCD
:1010A0007A95E1F7E22BE816F90669F16A015C012D
:1010B000DC01ED93BA83A98322E030E040E050E008
:1010C000B701CE0101960E940F07009779F4A8019D
:1010D000B701CE0101960E941C08009739F42981BE
:1010E0003A812A193B09F601318320830F900F9032
:1010F000DF91CF911F910F91FF90EF90DF90CF90F4
:10110000BF90AF9008958FEF9FEFF0CF2F923F9257
:101110004F925F926F927F928F929F92AF92BF9207
:10112000CF92DF92EF92FF920F931F93CF93DF93B3
:10113000CDB7DEB765970FB6F894DEBF0FBECDBF53
:101140001C013B012A011F861E86D1011D921C92A3
:1011500061E070E090E080E00E9413028C3FBFEFFE
:101160009B0709F47FC0009709F04CC0E091200371
:10117000F0912103D10111961C921E928081807FF3
:1011800090E074E0959587957A95E1F78D939C931F
:101190008930910579F04CF40297069758F0F101E7
:1011A0001182108287EF9FEF2DC08B30910511F0D7
:1011B0000D97A9F719821A821B821C8210E000E0A9
:1011C0004801FFEF8F1A9F0A61E070E0C4010E949E
:1011D00013020097B9F460912003709121036F5FAF
:1011E0007F4F79876887680D791DAE014F5F5F4F2C
:1011F000CE0108960E944F078E3F2FEF9207D9F439
:1012000089EF9FEF65960FB6F894DEBF0FBECDBF96
:10121000DF91CF911F910F91FF90EF90DF90CF90D2
:10122000BF90AF909F908F907F906F905F904F9006
:101230003F902F900895009781F569817A818B8185
:101240009C81611571058105910589F589819A81D6
:1012500001964E855F85840F951FDC01A80DB91D91
:10126000BF87AE87F10180819181009709F466C143
:101270008530910509F410C108F5039741F1411437
:10128000510409F453C1D1018D919C91481659061E
:1012900009F057C190E080E0B5CF19821A821B8215
:1012A0001C8284018F3F980709F48ACFABCFC80115
:1012B00002960E941302009749F2A4CF863091054E
:1012C00009F416C10D97D9F610921903D8CF0091E1
:1012D0001C0310911D03E0912003F0912103FD8771
:1012E000EC870E0F1F1FE017F10709F424C181914D
:1012F000FD87EC87982F907F903309F053CF982F7C
:1013000091709B83867090E095958795882483944F
:10131000912C813039F0912C812C823019F452E0DB
:10132000852E912CAE01485F5F4FB801CE010C961F
:101330000E944F07009709F065CFC884D984EA84DA
:10134000FB84F2E0CF16D104E104F10408F4A1C05B
:10135000EC85FD850E1B1F0B012E000C220B330BA1
:101360000C151D052E053F0508F4E5C022E0C21648
:10137000D10408F4E0C0808190E0982F8827218173
:10138000820F911D9F012E5F3F4F3D872C87009755
:1013900009F06BC01B8A1A8AEC0DFD1D998B888B96
:1013A0008114910409F46FC0AC85BD85CF018A1BFF
:1013B0009B0B029708F4BFC08C9190E0982F882770
:1013C00011962C911197AC01420F511D5D8B4C8BE6
:1013D0001296BD87AC878C859D85E81BF90BFF8332
:1013E000EE83EF2B09F052C01D821C82E091220394
:1013F000F09123033097A1F06091240370912503AD
:10140000A82C9A828982BA80CB80DC80ED80FE8015
:101410000F81288939894A895B8983E193E009959D
:101420008114910409F42BCF24E030E08A948928B8
:1014300011F025E030E060911A0370911B030C89D4
:101440001D89AE01485F5F4F80911E0390911F037D
:101450000E943408009709F0D5CE888599850E94AE
:10146000AF01009709F40BCFCDCEA6014250510930
:101470004817590708F45FC03B8B2A8B280F391F88
:101480003D872C8789CF1D8A1C8AA5CF9D838C839D
:10149000ADCF88EF9FEFB6CE60911C0370911D0316
:1014A0008E01085F1F4F9E01245F3F4F45E050E0D3
:1014B00080912003909121030E94B907009709F0C1
:1014C000A1CE0885198560911A0370911B0326E04F
:1014D00030E0AE014F5F5F4F80911E0390911F037C
:1014E0000E943408009709F08DCE89819A81B7CF88
:1014F00060911C0370911D038E01085F1F4F9E01B8
:10150000245F3F4F46E050E08091200390912103FB
:101510000E94B907009709F075CE0885198560917A
:101520001A0370911B0327E030E0D3CF61147104DC
:1015300009F0A9CEAFCE8FEF9FEF64CE41145104D6
:10154000A9F3E0913203F091330380912E0390913F
:101550002F03099516161706180619060CF09ACED1
:101560006114710409F4F1CDEE85FF85E615F705E8
:1015700008F4EBCD8FCE4F925F926F927F928F9255
:101580009F92AF92BF92CF92DF92EF92FF920F9312
:101590001F93CF93DF936B015901FC01C081D1816F
:1015A000EC82FD820E831F837B01E40EF51E8B010E
:1015B00048018C189D080E151F0511F10E94C306E5
:1015C000688779878A879B87E881F9810284F38518
:1015D000E02DCE01099597FF2DC00E94C3064884D7
:1015E00059846A847B8464197509860997094C803B
:1015F0005D806E807F80641575058605970520F3F4
:10160000F5019182808290E080E0892811F48BEFCF
:101610009FEFDF91CF911F910F91FF90EF90DF909F
:10162000CF90BF90AF909F908F907F906F905F9082
:101630004F900895F80181938F01BACF0895FB016F
:101640002785FC012787FB012685FC012687089555
:10165000FC018785089590E080E00895CF93DF93A3
:10166000EC018D819E81DC01ED91FC910084F1857E
:10167000E02D09951816190654F48D819E81DC0120
:10168000ED91FC910284F385E02D0995EACFDF917D
:10169000CF9108958F929F92AF92BF92CF92DF9297
:1016A000EF92FF92CF93DF93EC016B010E94C30690
:1016B0004B015C01F12CE12C8D819E81DC01ED91CF
:1016C000FC910284F385E02D099597FF0DC00E94DF
:1016D000C306681979098A099B096C157D058E0571
:1016E0009F0550F38FEF9FEFDF91CF91FF90EF9029
:1016F000DF90CF90BF90AF909F908F900895FC01A6
:10170000238134812627022E2295207F2025032E37
:10171000322F22952F700226269532272327220F5B
:10172000220F220F20253483238308952F923F9286
:101730004F925F926F927F928F929F92AF92BF92E1
:10174000CF92DF92EF92FF920F931F93CF93DF938D
:10175000CDB7DEB72A970FB6F894DEBF0FBECDBF68
:101760009A8789875B01290137011A01200E311EF2
:101770003A82198288248A94982C9A01260F371F5E
:101780003E832D83C801840D951D98878F83A9857D
:10179000BA8518968C91B981B81708F040C1E985CF
:1017A000FA859482838285819681DC01ED91FC919A
:1017B0000190F081E02D6FEF09956FEF89859A8593
:1017C0000E947F0BE985FA8585819681DC01ED9188
:1017D000FC910190F081E02DA985BA856C91099565
:1017E000E985FA856081CF010E947F0BA985BA85C2
:1017F00015968D919C91DC01ED91FC910190F08109
:10180000E02D6A8109956A8189859A850E947F0BFE
:10181000E985FA8585819681DC01ED91FC91019045
:10182000F081E02D622D0995622D89859A850E94AF
:101830007F0B8501E985FA8585819681D8016D91B7
:101840008D01DC01ED91FC910190F081E02D099575
:10185000F8013197608189859A850E947F0BED811F
:10186000FE810E171F0731F78201A985BA851596EB
:101870008D919C91DC01ED91FC910190F081E02D26
:101880002F8138852017310761F0D8016D918D01C6
:101890000995F8013197608189859A850E947F0BAF
:1018A000E4CFA985BA8514966C910995E985FA85E6
:1018B00085819681DC01ED91FC910190F081E02D14
:1018C000A985BA8513966C91099568EC70E08985B5
:1018D0009A850E944A0B8F3F910509F092C0E985D5
:1018E000FA85948283826FEFCF010E947F0B65E0BF
:1018F00070E089859A850E944A0BA985BA856C910A
:101900006817190609F07DC0CD010E947F0B6AE0BF
:1019100070E089859A850E944A0B7C0197FD71C011
:10192000682F89859A850E947F0B6AE070E089851F
:101930009A850E944A0B8C0197FD63C0682F8985A8
:101940009A850E947F0BEC821B82EB81FC810E0F3B
:101950001F1FF12CE12C65E070E089859A850E153A
:101960001F05A1F0EC14FD0489F00E944A0B97FDBD
:1019700009C0F301EE0DFF1D8083682F89859A85CC
:101980000E947F0BFFEFEF1AFF0AE5CF0E944A0B80
:101990007C0197FD36C065E070E089859A850E94DC
:1019A0004A0B97FD2EC0FE2CEE248E0D9F1DA9859F
:1019B000BA8513962D913C9114978217930709F5D8
:1019C0008C918F5F8C93C801C016D10608F4C601B4
:1019D0002A960FB6F894DEBF0FBECDBFDF91CF9130
:1019E0001F910F91FF90EF90DF90CF90BF90AF903D
:1019F0009F908F907F906F905F904F903F902F902F
:101A00000895B981BF5FB98364E670E080E090E03B
:101A10000E940C0689859A850E942E0BB8CE8FEF06
:101A20009FEFD6CFAF92BF92CF92DF92EF92FF920D
:101A30000F931F93CF93DF9300D0CDB7DEB7FC0198
:101A40009B015A018785882301F18CE6898386856D
:101A50008A83D12CC12CF12CE12C8A0142E050E088
:101A6000BE016F5F7F4F848595850E94960BC501EF
:101A70000F900F90DF91CF911F910F91FF90EF90FA
:101A8000DF90CF90BF90AF900895B12CA12CEFCFF5
:101A9000CF92DF92EF92FF920F931F93680179012B
:101AA00010E000E030E020E00E94960B1F910F91C3
:101AB000FF90EF90DF90CF900895EF92FF920F93F9
:101AC0001F93CF93DF9300D01F92CDB7DEB7DC0119
:101AD0001F962C911F97222301F17C01ED91FC911F
:101AE0000084F185E02D0995892B11F58CE489831B
:101AF000F70186858A8301E010E09E012D5F3F4F4C
:101B000042E050E0BE016F5F7F4F848595850E9463
:101B1000480D81E09B81913009F080E00F900F909B
:101B20000F90DF91CF911F910F91FF90EF9008954B
:101B300081E0F4CFEF92FF920F931F93CF93DF9347
:101B400000D01F92CDB7DEB7FC012089211118C04B
:101B50007C01118A8BE4898380E48B8386858A8368
:101B60009F012E5E3F4F00E410E043E050E0BE01D5
:101B70006F5F7F4F848595850E94480DF701808BAC
:101B80000F900F900F90DF91CF911F910F91FF90C9
:101B9000EF900895CF93DF93EC010E949A0D88890E
:101BA000882341F08989C80FD11D8A8990E0DF918F
:101BB000CF9108958FEF9FEFFACFCF92DF92EF9200
:101BC000FF920F931F93CF93DF93EC016A017B0188
:101BD00010E000E08889811106C0CE010E949A0DB4
:101BE0008889882399F0E98981E08E0F898B0F5FBE
:101BF0001F4FEC0FFD2FF11D8289F70181937F01AB
:101C000088898150888B0C151D0520F3C801DF9150
:101C1000CF911F910F91FF90EF90DF90CF9008959B
:101C2000CF93DF93EC010E949A0D8889882369F095
:101C30008150888B898991E0980F998BC80FD11DAD
:101C40008A8990E0DF91CF9108958FEF9FEFFACFCF
:101C5000CF93DF93EC010E949A0D888990E0DF9189
:101C6000CF910895CF92DF92EF92FF920F931F933F
:101C7000D12CC12CF12CE12C10E000E030E020E070
:101C80000E94960B1F910F91FF90EF90DF90CF90E5
:101C90000895CF93DF9300D01F92CDB7DEB7FC013C
:101CA000278590E080E0222381F08CE68983868579
:101CB0008A836B8343E050E0BE016F5F7F4F848572
:101CC00095850E94320E81E090E00F900F900F906A
:101CD000DF91CF9108950F931F93CF93DF9300D09F
:101CE000CDB7DEB78C01FC018785882369F08AE6D1
:101CF000898386858A8342E050E0BE016F5F7F4F13
:101D0000848595850E94320EF8011786108A118A03
:101D10000F900F90DF91CF911F910F9108958F92A7
:101D20009F92AF92BF92EF92FF920F931F93CF9328
:101D3000DF93CDB7DEB7A1970FB6F894DEBF0FBE25
:101D4000CDBF7C01FA01CB0119A2223008F42AE0B0
:101D50008E010F5D1F4F822E912CB12CA12CBF0143
:101D6000A50194010E943A22F901CA016A3074F572
:101D7000605DD8016E938D01232B242B252B79F7E1
:101D800090E080E0109789F0FD0101900020E9F7D4
:101D90003197AF014A1B5B0BD701ED91FC9102809B
:101DA000F381E02DB801C7010995A1960FB6F8940B
:101DB000DEBF0FBECDBFDF91CF911F910F91FF907E
:101DC000EF90BF90AF909F908F900895695CD1CFB6
:101DD0008F929F92AF92BF92CF92DF92EF92FF923B
:101DE0000F931F93CF93DF937C01EB016C0182E093
:101DF000C80ED11C4701E5E08E0E911C10E000E0FA
:101E0000F60141916F0150E070E060E02AE0CE0100
:101E10000E948F0E5C01E881F9810190F081E02D34
:101E20006EE2CE0109958A0D9B1D080F191FC8147B
:101E3000D90431F7F701458150E070E060E02AE015
:101E4000CE010E948F0E800F911FDF91CF911F91C5
:101E50000F91FF90EF90DF90CF90BF90AF909F9049
:101E60008F900895DC0160E070E0CB01109709F4D9
:101E70000895FD0101900020E9F73197EA1BFB0B63
:101E8000B9F3BF01CD010895AF92BF92CF92DF9217
:101E9000EF92FF920F931F93CF93DF9300D000D068
:101EA00000D01F92CDB7DEB75C019B0183E489832C
:101EB0005A834B83FB0101900020E9F731978F0192
:101EC000061B170BCC24C394D12CCE0106967C01A3
:101ED00043E050E0BE016F5F7F4FD5011C968D91AE
:101EE0009C910E94960B892BB9F18E81F501868712
:101EF00093E69C838D8301E010E09E01295F3F4FB4
:101F000042E050E0BE016C5F7F4FD5011C968D9181
:101F10009C910E94480D8F81882339F061E070E028
:101F200080E090E00E940C06E6CF81E0F501878713
:101F30000190F081E02D0688F789E02DC501099513
:101F400081111DC0D501ED91FC910488F589E02D2A
:101F5000C5010995F501168690E080E027960FB639
:101F6000F894DEBF0FBECDBFDF91CF911F910F91CF
:101F7000FF90EF90DF90CF90BF90AF90089581E0F9
:101F800090E0ECCF0F931F93CF93DF93EC012115DB
:101F9000310591F088819981681B790B621773076D
:101FA00090F08901BA01A9010E945E24288139813B
:101FB000200F311F3983288390E080E0DF91CF919B
:101FC0001F910F9108958FEF9FEFF8CFCF92DF927F
:101FD000EF92FF920F931F93CF93DF93EC018B014E
:101FE00069017A01A9010E941C08009771F4960109
:101FF000A701B801CE01DF91CF911F910F91FF9002
:10200000EF90DF90CF900C94C20FDF91CF911F9192
:102010000F91FF90EF90DF90CF9008953F924F92F5
:102020005F926F927F928F929F92AF92BF92CF9268
:10203000DF92EF92FF920F931F93CF93DF93CDB771
:10204000DEB7E5970FB6F894DEBF0FBECDBF96E0C2
:10205000492E512C0E94890281110E947C0280919C
:10206000F7029091F8029093060380930503409144
:10207000FB025091FC026091F9027091FA02DC01BE
:10208000ED91FC910088F189E02D0995181619064B
:102090000CF78FE0E2E1F1E0DE015F9601900D9236
:1020A0008A95E1F78090F0029090F1023090F20270
:1020B0008CE791E00E94320F6F8F78A389A39AA3D7
:1020C00081E991E00E94320F6EA37FA388A799A7B0
:1020D0008AE991E00E94320F6AA77BA78CA79DA78F
:1020E0004091F3025091F4026091F5027091F60272
:1020F000E090FD02F090FE029CA28BA23DA28FE038
:10210000FE017F96DE01509601900D928A95E1F7CF
:10211000E0913003F091310380912E0390912F03D1
:1021200009959401AEEEB2E00E94C720AB01BC015C
:10213000409315035093160360931703709318038D
:10214000E0913003F091310380912C0390912D03A5
:10215000099510921903509236034092350300916D
:102160001A0310911B03C0901E03D0901F038FE031
:10217000FE017096DE01119601900D928A95E1F7AD
:1021800028893989AF88B88C6B8C7C8CDFA6CEA669
:102190000C0D1D1D2E5F3F4F50E040E0265F3F4F6E
:1021A0004F4F5F4FE114F10461F0F701808191819D
:1021B00067817085860F971F0496280F391F411D70
:1021C000511DA114B10479F0C5010296280F391FE1
:1021D000411D511D6114710431F0C3010296280F95
:1021E000391F411D511DC016D10609F47DC180E182
:1021F000D6018C938EA59FA501969FA78EA7B801A7
:10220000CE018E960E940F07009709F008C18BEA55
:1022100091E00E94320F9B01AC01B801CE018E9675
:102220000E94E60F009709F0FAC0EEA5FFA5E0179F
:10223000F10709F459C184E08083EEA5FFA59F0151
:102240002F5F3F4F3FA72EA7432D50E0440F551F50
:10225000E114F10489F0D70114968C911497880F3A
:10226000880F880F4460842B8F7D16964C91B0E2C6
:102270004B9FA0011124482BA114B10429F0611433
:10228000710409F0A6C040682017310709F42CC179
:1022900041838EA59FA501969FA78EA7A401B80193
:1022A000CE018E960E941C08009709F0B8C02981C3
:1022B0003A814B815C81B801CE018E960E94E60F77
:1022C000009709F0ACC0E114F10409F084C0AB2818
:1022D000D1F0288539854A855B85B801CE018E9677
:1022E0000E94E60F009709F09AC0672861F02C85DC
:1022F0003D854E855F85B801CE018E960E94E60F22
:10230000009709F08CC08EA59FA58C199D090E948D
:10231000AF01009709F083C01DAA1CAA42E050E05B
:1023200070E060E0CE01C4960E948608009709F034
:1023300076C08CA99DA9029709F0CFC000911C031B
:1023400010911D03E0912003F0912103FBABEAAB58
:102350000E0F1F1FE017F10709F4C6C08191FBABF8
:10236000EAAB807F803209F0ACC0AE01425D5F4FC6
:10237000B801CE01C2960E944F07009709F04FC0E6
:102380008EA59FA5A8A9B9A90297A105B10509F035
:1023900095C0EAA9FBA9E017F10709F4A5C0CF0190
:1023A00001969BAB8AAB8017910709F49DC0818190
:1023B0003296FBABEAAB823009F46FC0A8F58823F4
:1023C000E1F1813009F462C0509236034092350346
:1023D00038C0406C59CFF70120813181428153814F
:1023E000B801CE018E960E94E60F0097C1F4D70186
:1023F00017964D915C91B801CE018E960E941C08F3
:10240000009769F4F7012781308541855285B8012D
:10241000CE018E960E94C20F009709F458CF909378
:1024200038038093370356C0843009F440C0C0F1AC
:10243000853051F685E090E02BC010923603109263
:1024400035038091350390913603892BE9F510927D
:1024500038031092370381E080933403E5960FB67A
:10246000F894DEBF0FBECDBFDF91CF911F910F91CA
:10247000FF90EF90DF90CF90BF90AF909F908F90A4
:102480007F906F905F904F903F90089581E090E033
:102490009093360380933503D4CF82E090E0F8CF59
:1024A000A3E0B0E0B0933603A0933503CACFE4E0D5
:1024B000F0E0F0933603E0933503C3CF88EF9FEF4E
:1024C000AECF87EF9FEFABCFA6EFBFEFB093380350
:1024D000A09337030E947C02BDCDE7EFFFEFF0939E
:1024E0003803E0933703F6CF8FEF9FEF98CF0F932A
:1024F0001F93CF93DF93EC0188819981009759F066
:102500002A813B812617370730F081E0DF91CF9198
:102510001F910F9108958B016F5F7F4F0E9487235A
:10252000009759F0998388831B830A832C813D810E
:10253000232B59F7FC011082E8CF80E0E7CFEF9220
:10254000FF920F931F93CF93DF936115710541F4B1
:1025500080E0DF91CF911F910F91FF90EF90089550
:1025600041155105B1F07B01EC010C811D81040F77
:10257000151FB8010E947712882351F328813981F1
:102580008C819D81B701820F931F0E9467241D8358
:102590000C8381E0DECFCF93DF9300D0CDB7DEB7E1
:1025A0002EE229831A8241E050E0BE016F5F7F4F27
:1025B0000E949F120F900F90DF91CF910895EF929C
:1025C000FF920F931F93CF93DF9300D000D0CDB72E
:1025D000DEB77C01862F4AE08E010F5F1F4FB801E6
:1025E00090E00E941E1DF80101900020E9F731974C
:1025F000AF01401B510BB801C7010E949F120F9001
:102600000F900F900F90DF91CF911F910F91FF903E
:10261000EF900895EF92FF920F931F93CF93DF9364
:10262000EC01198218821B821A821D821C8261159C
:102630007105E1F08B01FB0101900020E9F7319772
:102640007F01E61AF70AB7010E94771228813981C3
:10265000811113C02115310519F0C9010E94FE2214
:10266000198218821D821C821B821A82DF91CF91EF
:102670001F910F91FF90EF900895FD82EC82B801B9
:10268000C901DF91CF911F910F91FF90EF900C94B2
:1026900067244F925F926F927F928F929F92AF9238
:1026A000BF92CF92DF92EF92FF920F931F93CF933F
:1026B000DF93CDB7DEB769970FB6F894DEBF0FBED4
:1026C000CDBF4B0129013A01AB8ABC8ACD8ADE8A93
:1026D000EF8AF88E098FCDB6DEB60E891F89A88CD9
:1026E000B98CC90101962DB73EB7281B390B0FB61F
:1026F000F8943EBF0FBE2DBF8DB79EB701967C01EB
:10270000A201B3010E945E244E0C5F1CD2011C92F8
:102710000115110521F0F801EA0DFB1D1082D4010D
:102720001496ED91FC911597309739F19501A80118
:10273000B7018D919C9109950FB6F894DEBE0FBE3E
:10274000CDBE0FB6F894DEBE0FBECDBE69960FB6F5
:10275000F894DEBF0FBECDBFDF91CF911F910F91D7
:10276000FF90EF90DF90CF90BF90AF909F908F90B1
:102770007F906F905F904F900895F40182819381D4
:10278000892BD1F2B701CE0107960E940A136AEA9B
:1027900071E0CE010D960E940A1301151105F9F0A2
:1027A000B801CE0101960E940A138D859E8500977F
:1027B00059F169817A816115710521F14F85588937
:1027C0002D813E8142175307E8F00E9467248D81D6
:1027D0009E819A8B898B89819A810E94FE22D401E5
:1027E0001296ED91FC91BE01635F7F4FCE0107967B
:1027F00009958D859E850E94FE228F8198850E9475
:10280000FE229ACF0E94FE2289819A819E878D871F
:102810008B819C81988B8F878D819E819A8B898BF0
:102820001A821982D8CFCF92DF92EF92FF920F9344
:102830001F93CF93DF9300D000D000D0CDB7DEB789
:102840007C018B016A016AEA71E0CE0101960E9467
:102850000A1362E170E0CE0101960E947712D8015E
:1028600012966C91CE0101960E94DF12CE01019664
:102870000E94CB12F8016381CE0101960E94DF1203
:10288000CE0101960E94CB12D80114966C91CE0114
:1028900001960E94DF12CE0101960E94CB12F80130
:1028A0006581CE0101960E94DF1269817A81D7018C
:1028B000ED91FC910088F189E02DA601C7010995F1
:1028C0008C0189819A810E94FE22C80126960FB64A
:1028D000F894DEBF0FBECDBFDF91CF911F910F9156
:1028E000FF90EF90DF90CF9008951F920F920FB658
:1028F0000F9211248F939F938091E1009091E100BA
:10290000937F9093E10083FF0FC01092E90091E064
:102910009093EB001092EC0092E39093ED001092F4
:10292000F00198E09093F00082FF22C093E0909332
:10293000E9009091F200992319F09AE39093E8004E
:102940009091E101992341F09091E1019150909390
:10295000E101911101C05D9A9091EF01992341F03D
:102960009091EF0191509093EF01911101C0289A3D
:1029700084FF18C08091E2008E7E81608093E20027
:102980008091E1008F7E8093E1008091E2018E7E54
:1029900080618093E2019F918F910F900FBE0F9005
:1029A0001F90189580FFF7CF8091E2008E7E8061A6
:1029B0008093E2008091E1008E7E8093E10080911F
:1029C000E2018E7E8160E5CF1F920F920FB60F92CB
:1029D0001124CF92DF92EF92FF920F931F932F93C8
:1029E0003F934F935F936F937F938F939F93AF9397
:1029F000BF93EF93FF93CF93DF93CDB7DEB76C9781
:102A0000DEBFCDBF1092E9008091E80083FF25C0B2
:102A100068E0CE0145960E94910482EF8093E80021
:102A20008D8987FF39C09091E80090FFFCCF982FE7
:102A3000907609F034C19E894F89588D2F89F88C82
:102A4000911131C0803861F58091E0018093F100EF
:102A50001092F1008EEF8093E8006C960FB6F89418
:102A6000DEBF0FBECDBFDF91CF91FF91EF91BF9140
:102A7000AF919F918F917F916F915F914F913F9116
:102A80002F911F910F91FF90EF90DF90CF900F90BB
:102A90000FBE0F901F9018959EEF9093E800C7CF40
:102AA0001092F100D5CF913059F48111D3CF41303C
:102AB000510581F68091E0018D7F8093E001CACFBE
:102AC000933049F48111C6CF4130510519F68091F8
:102AD000E0018260F2CF953041F48091E80080FF00
:102AE000FCCF20682093E300B5CF963009F0A9C051
:102AF0000B8D1C8D22E01092E9001092DE011092E5
:102B0000DD01F2122EC01092DC011092DB010E9456
:102B100060041F8299E09983FA8291E09E8390EA93
:102B200098879AEF99872091DD013091DE01275F28
:102B30003F4F3C832B838D831092E9001092DE017E
:102B40001092DD011093DC010093DB0149E050E0BD
:102B5000BE016F5F7F4F80E00E943A040E946004D4
:102B600079CF1093DC010093DB010E944403DC0168
:102B700012960D911C910115110509F451C1D8014E
:102B8000ED91FC910480F581E02DBE016B5E7F4FDD
:102B9000C8010995009709F03EC1F801008511852B
:102BA000EACFF3E0FF120EC08F89882309F440C0FA
:102BB000823061F440E86BE08EE892E00E94070406
:102BC000811148CF81E28093EB0047CF813029F417
:102BD00040E86BE082E892E0F1CF833099F70E9401
:102BE0004403DC011296ED90FC908E010F5F1F4FA5
:102BF0006801E114F10479F0D701ED91FC910680B0
:102C0000F781E02DB801C7010995080F111DF701E3
:102C1000E084F184EECFD8011C92F60101900020EF
:102C2000E9F73197BF016C197D0940E0C601C6CFB5
:102C30006CE672E0FB01449150E080E80E943A04A7
:102C400009CF973009F4BECF983021F481E080930A
:102C5000F10000CF993009F0FDCE837009F0B2CFBA
:102C6000ECE2F1E081E031E096E32191222371F082
:102C70008093E9003093EB00DF0111972C912093B2
:102C8000EC009093ED008F5F873079F78EE78093AB
:102C9000EA001092EA008F898093F001DBCE8B8DE1
:102CA0009C8D1092E9001092DE011092DD0190934C
:102CB000DC018093DB01898D811192C08E899D8911
:102CC000913A49F4813209F07DCF47E050E064E069
:102CD00071E080E0B3CF913209F074CF833269F4B0
:102CE0008F89988DB0E0A0E080930001909301015E
:102CF000A0930201B0930301ADCE803269F48091BC
:102D0000E80082FFFCCF67E084E091E00E9491043C
:102D10008BEF8093E8009ECE823209F09BCE8F89A4
:102D200080930B01EEEFFFE7859194918B3F9C4DD3
:102D300051F1E0E0F8E08091040190910501A0914B
:102D40000601B0910701803B9440A105B105F1F463
:102D500080910B0180FD1AC0EE3F8AE0F80789F5EB
:102D600087E797E791838083809160008093DF01FC
:102D700088E19BE00FB6F894A895809360000FBEA1
:102D80009093600067CEEEEFFAE0D5CF808191811D
:102D90008737974709F05ECEA895809160008861DB
:102DA000809360008091DF0180936000EE3F2AE015
:102DB000F20789F08091FE0A9091FF0A9183808347
:102DC00049CE808191818737980751F29093FF0A0D
:102DD0008093FE0AC5CF1092FF0A1092FE0A3ACEE7
:102DE0000E944403DC0112960D911C9101151105FE
:102DF00009F4E8CED801ED91FC910190F081E02D2D
:102E0000BE016B5E7F4FC8010995811123CEF80189
:102E100000851185EBCF181619060CF41BCED2CE07
:102E2000F1E0FF12BECE60E772E004CF1F920F9276
:102E30000FB60F9211242F933F934F935F936F938D
:102E40007F938F939F93AF93BF93EF93FF938DE403
:102E500092E00E945A05FF91EF91BF91AF919F912F
:102E60008F917F916F915F914F913F912F910F9033
:102E70000FBE0F901F9018951F920F920FB60F92D2
:102E800011242F938F939F93EF93FF93E0915D0213
:102E9000F0915E028081E0916302F091640282FD14
:102EA0001BC09081809166028F5F8F7320916702B3
:102EB000821741F0E0916602F0E0E35BFD4F958FF1
:102EC00080936602FF91EF919F918F912F910F90C8
:102ED0000FBE0F901F9018958081F4CF1F920F9214
:102EE0000FB60F9211242F933F938F939F93AF931D
:102EF000BF938091CF019091D001A091D101B09169
:102F0000D2013091CE0123E0230F2D3758F50196E1
:102F1000A11DB11D2093CE018093CF019093D001CC
:102F2000A093D101B093D2018091D3019091D401AB
:102F3000A091D501B091D6010196A11DB11D80933C
:102F4000D3019093D401A093D501B093D601BF9142
:102F5000AF919F918F913F912F910F900FBE0F9046
:102F60001F90189526E8230F0296A11DB11DD2CF00
:102F7000CF93DF93E1EFF1E01382128248EE53E04A
:102F800060E070E0448355836683778386E391E055
:102F9000918380838FEF9FEF95878487EDE4F2E044
:102FA00013821282448355836683778388E491E099
:102FB000918380838DEC90E0958784878CEC90E002
:102FC0009787868788EC90E0918B808B89EC90E0E6
:102FD000938B828B8AEC90E0958B848B8EEC90E0C7
:102FE000978B868B118E128E138E148EA1E4B2E015
:102FF0008AE791E011969C938E9312961C921297F9
:1030000013961C92139714961C92149715961C9263
:10301000A7E4B2E011969C938E9312961C9212979D
:1030200013961C92139714961C92149715961C9243
:10303000A9E3B3E01C921696FC93EE9315971796AE
:103040001C92179718961C9218971A96FC93EE9359
:103050001997E6E9F3E09183808312821382148248
:103060001582E4E4F3E0138212824483558366837D
:1030700077838AE591E091838083B587A48716865C
:103080001786108ACAEED2E08AE090E09F838E8392
:1030900081E0888749875A876B877C871E861D86D3
:1030A000188A1F861A8A198A1C8A1B8A1E8A1D8AF8
:1030B000188E1F8A1A8E198E1C8E1B8E1D8E1E8EC8
:1030C0001F8E18A21AA219A21BA21CA21DA21EA228
:1030D00018A61FA2109234031092360310923503E3
:1030E0001092380310923703E3E1F3E081E2DF014D
:1030F0001D928A95E9F780E890E09983888381E8BA
:1031000090E00E9462229B838A8380E890E00E9484
:1031100062229D838C83DF91CF910895CF93DF93BB
:10312000CDB7DEB7A2970FB6F894DEBF0FBECDBF06
:10313000789484B5826084BD84B5816084BD85B592
:10314000826085BD85B5816085BD80916E0081609E
:1031500080936E0010928100809181008260809344
:103160008100809181008160809381008091800046
:1031700081608093800080919100826080939100B3
:103180008091910081608093910080919000816096
:10319000809390008091C10084608093C1008091F1
:1031A000C10082608093C1008091C10081608093E2
:1031B000C1008091C30081608093C3008091C000F2
:1031C00082608093C0008091C20081608093C200C1
:1031D00080917A00846080937A0080917A00826086
:1031E00080937A0080917A00816080937A00809148
:1031F0007A00806880937A001092F0011092E001CA
:103200001092E2018091D70081608093D70080EA1C
:103210008093D80089B5806189BD89B5826089BDF8
:1032200009B400FEFDCF61E070E080E090E00E9414
:103230000C068091D8008F7C80618093D8008091AB
:10324000E000807F8093E0008091E1008E7E80939B
:10325000E1008DE08093E200559A209AE4EDF2E0DF
:103260002491E5EBF2E08491882399F090E0880FB7
:10327000991FFC01E050FE4FA591B491FC01E65668
:10328000FD4F859194918FB7F894EC91E22BEC93DC
:103290008FBFE0914203F0914303A089B18982E09E
:1032A0008C93A485B5851C92A685B78587E08C9301
:1032B000108EA489B58986E08C93A289B3898C91FC
:1032C00080618C93A289B3898C9188608C93A28948
:1032D000B3898C9180688C930288F389E02D80817A
:1032E0008F7D8083809140038111B9C081E08093FC
:1032F000400389E393E00E942E0B68EE73E080E0C8
:1033000090E00E940C0680913E0390913F03DC0107
:10331000ED91FC910084F185E02D099518161906B0
:1033200044F3FF24F39422E3E22E85E0E1E2F1E0AE
:10333000DE01559601900D928A95E1F7F0924103D6
:1033400045E050E0BE016B5E7F4F89E393E00E9451
:10335000320E80913E0390913F03DC01ED91FC9190
:103360000190F081E02D63E009956AEF70E080E064
:1033700090E00E940C066CE172E080913E03909117
:103380003F030E94B8046AEF70E080E090E00E9482
:103390000C066AE172E080913E0390913F030E9427
:1033A000B80464EF71E080E090E00E940C066EE0EB
:1033B00072E080913E0390913F030E94B80464EF55
:1033C00071E080E090E00E940C0689E393E00E94A7
:1033D0002E0B85E0E6E2F1E0DE01119601900D9200
:1033E0008A95E1F7E092410304E010E09E01255E3A
:1033F0003F4F45E050E0BE016F5F7F4F89E393E0B0
:103400000E94480D8F3F980739F468EE73E080E022
:1034100090E00E940C0689CF2B8D2111FFCF0497DD
:1034200009F09CC22C8D2053330B44E6429FC0010F
:10343000439F900D11242D8DEAE02E9F800D911D4C
:103440001124805E91402E8D2053330B820F931FE9
:1034500090933B0380933A0382E3809341038091EE
:10346000F9029091FA02009711F00E94FE2280EB7F
:1034700091E00E9444249093FA028093F9028BE534
:1034800097E09093FC028093FB0284E493E0909396
:10349000F8028093F7028091EA029091EB0220916A
:1034A000EC023091ED024091EE025091EF0261E0AA
:1034B00070E070931403609313031092150310923D
:1034C00016031092170310921803109219035093C9
:1034D0001F0340931E0390931B0380931A033093A2
:1034E00021032093200390931D0380931C031092CB
:1034F00023031092220310922503109224031092AA
:103500002703109226031092290310922803109289
:103510002B0310922A0387E093E090932D0380936E
:103520002C038DE093E090932F0380932E038FEC78
:1035300096E090933103809330038FEE96E0909362
:1035400033038093320340E050E0BA0187E093E018
:103550000E94CF06E0913003F091310340E050E04B
:10356000BA0180912E0390912F03099585E093E095
:1035700090932703809326038BEB9AE09093290383
:10358000809328038EE994E090932B0380932A0381
:103590008FEF92E0909325038093240389E493E1D5
:1035A00090932303809322030E940E1080E0282E24
:1035B00080E0382E93EF892E99249A940E948902F4
:1035C000882309F491C08091F7029091F802DC0100
:1035D000ED91FC910084F185E02D09958C01892BFA
:1035E00009F14091F3025091F4026091F50270915B
:1035F000F602E0913003F091310380912E03909117
:103600002F0309951A82198250E040E0B801CE01DB
:1036100001960E948608009709F0ACC11092380309
:10362000109237034091F3025091F4026091F50239
:103630007091F602E0913003F091310380912E03F6
:1036400090912F0309958091150390911603A091F5
:103650001703B0911803892B8A2B8B2B09F440C0D8
:10366000E0913203F091330380912C0390912D036C
:103670000995161617061806190694F18091190374
:1036800081116FC160911A0370911B0300911E0399
:1036900010911F031A830983600F711F6017710750
:1036A00009F466C120ECF801208389819A81019692
:1036B0009A83898320E030E0A901CE0101960E941F
:1036C0000F07009709F056C189819A81801B910BE1
:1036D0000E94AF01009709F04DC131E0309319030A
:1036E00010923803109237030E948902811102C0A0
:1036F0000E940E100E94C3060091D7011091D801BC
:103700002091D9013091DA01601B710B820B930B70
:10371000613D77408105910508F414C10E94C306FC
:103720006093D7017093D8018093D9019093DA0107
:10373000EEE1F2E0849120917B00982F990F990F90
:1037400090722F7D922B90937B0087708064809382
:103750007C0080917A00806480937A0080917A0066
:1037600086FDFCCF8091780060917900762F682FDC
:10377000072E000C880B990B0E948C1F9B01AC013B
:1037800060E070EC8FE794E40E94432120E030E099
:1037900040E85FE30E94D62020E030EC42EF56EC98
:1037A0000E94C71F20E030EC42EF56EC0E944321FC
:1037B0000E94BD216B017C0161EC71E0CE014B9652
:1037C0000E940A136AEA71E0CE0145960E940A132C
:1037D00020E038E945E855E4C701B6010E944321DD
:1037E0002FE03FEC4BE55BE30E94D7209B01AC014F
:1037F00060E070E080E89FE30E94432123E333E927
:1038000048E853E40E94D6208E010F5F1F4F22E04C
:1038100044E00E94001DFC0101900020E9F731976F
:10382000AF01481B590BBC01CE0145960E949F1267
:1038300081E00E949D02AD88BE880B8D1C8DF50134
:1038400001900020E9F731979F012A193B093AA31B
:1038500029A30E948902882309F463C0C090F3025F
:10386000D090F402E090F502F090F602C8010E94B8
:10387000320F2B013C01E0913003F0913103B7018D
:10388000A60180912E0390912F03099500911A03B0
:1038900010911B03C0901E03D0901F03DA82C982CF
:1038A0000C0D1D1DC201029669A17AA19B0150E079
:1038B00040E0280F391F411D511D0C151D0509F44D
:1038C0005EC0E0E3D601EC9389819A8101969A83E8
:1038D0008983B801CE0101960E940F07009709F075
:1038E00050C0A3019201B801CE0101960E94E60FDB
:1038F000009709F046C029A13AA1A501B801CE015F
:1039000001960E94C20F0097E1F589819A818C1976
:103910009D090E94AF010097A1F510923803109203
:10392000370364E670E080E090E00E940C0680E0DF
:103930000E949D028D899E890E94FE228B8D9C8D06
:103940000E94FE222114310409F438CE0E9446055B
:10395000882309F433CE0E94000030CE84E690E044
:1039600077CD90923803809237030E947C02BCCEC0
:103970008FEF9FEF9093380380933703F6CF8FEF4D
:103980009FEF90933803809337030E947C02C9CF46
:10399000E091FD02F091FE023097F1F08781908571
:1039A000892B21F0818592850E94FE22E091FD0203
:1039B000F091FE0280819181892B21F08281938197
:1039C0000E94FE228091FD029091FE020E94FE2242
:1039D0001092FE021092FD028091F9029091FA027B
:1039E000009711F00E94FE228091EC029091ED026E
:1039F0000E94FE228091EE029091EF020C94FE2232
:103A0000EF920F931F93CF93DF93E80134E047FDCC
:103A100034E1042E000C550B57FF03C0519541951E
:103A20005109E32E022F242FAE010E94431DCE0127
:103A3000DF91CF911F910F91EF900895BB274A30EE
:103A400031F4992322F4BDE2909581959F4F0C9417
:103A50002A1DBB27FB015527AA27880F991FAA1FDC
:103A6000A41710F0A41B83955051B9F7A05DAA3399
:103A700008F0A95DA193009779F7B111B193119264
:103A8000CB010C947A1FA9E0B0E0E9E4FDE10C94CD
:103A900096206A01F22EB02E102FFBE3AF2EA01657
:103AA00008F41BE31F5F012F27E0AE014F5F5F4F5C
:103AB0000E94A21EBC018981982F9970913009F44F
:103AC0003FC09BE2E1FC04C09E2D9170E0FC3AC037
:103AD0005E2D5071E82FE87083FF46C084E091119D
:103AE00001C083E0EF2DE81B8F1508F0E0E0D60160
:103AF0008E2F20E2552351F1992329F0D6019C9372
:103B0000C60101966C0196012D5F3F4FE2FE24C075
:103B10008EE4D6018C9391E411969C9311971296A2
:103B20008C93D9018E2F90E281111BC0E20FF32FED
:103B3000F11D10828EEF9FEF2996ECE00C94B220DD
:103B40009DE2C6CF90E2C4CF2D9381508111FCCF6E
:103B5000CE0ED11CE0E0D0CF8EE6D6018C9391E65C
:103B6000DBCF9D938150E0CF482F447082FF3DC052
:103B700084E0911101C083E08F1510F4EF2DE81B54
:103B8000D6018E2F20E2552309F1992329F0D60181
:103B90009C93C60101966C0196012D5F3F4FE2FE9A
:103BA0001BC089E4D6018C938EE411968C931197F7
:103BB00086E412968C93D9018E2F90E2882309F423
:103BC000B5CF9D938150FACF2D9381508111FCCFB9
:103BD000CE0ED11CE0E0D9CF89E6D6018C938EE6DB
:103BE00011968C93119786E6E4CF9B0177FF02C074
:103BF00030E020E0A1E0B0E0911102C0B0E0A0E030
:103C0000F9013196AE0FBF1F8B2C912CBB2009F40C
:103C100061C05401EFEFAE1ABE0AAA0DBB1DFA1621
:103C20001B0619F014F04F2D4A1B511188C0E3FCFC
:103C300059C07601A42FB0E2A1114FC0C40ED11C0F
:103C4000992309F45BC040E0D6011196F6019083F8
:103C50006D01552309F448C0012F060F9A81582F92
:103C6000507184FF03C0913309F4015010160CF019
:103C700047C0093008F008E0EEE2FE2E5B01A01A12
:103C8000B10885019194819491082F3F320729F45E
:103C9000D601FC92F60131966F016217730794F119
:103CA000021713077CF5DB01A21BB30BAA24A39414
:103CB000B12CAC0EBD1EAA0DBB1D11968C912150CE
:103CC0003109D601119628153905F4F0F6018083E3
:103CD0006D01DBCFB12CA12CA0CFF701B1937F01F7
:103CE000A150AACF9111B0CFD601942F50E302C0BA
:103CF0005D9391509111FCCFC40ED11C40E0ACCF2C
:103D000001E0BACF80E3DBCF6217730731F496335B
:103D100088F4953311F4552369F0F6018083FD0191
:103D2000842F90E2811108C0A40FB11D1C9290E075
:103D300080E002CF81E3F1CF91938150F3CF9111D5
:103D400083CF8ACF283008F027E03327DA01990F94
:103D5000311D87FD916000966105710539F432606F
:103D60002E5F3D9330E32A95E1F708959F3F30F0B1
:103D700080387105610509F03C5F3C5F3D939130EF
:103D800008F08068911DDF93CF931F930F93FF92EC
:103D9000EF92192F987F9695E92F96959695E90FB2
:103DA000FF27E05AFE4F99273327EE24FF24A7016F
:103DB000E70105900894079428F4360FE71EF81ED3
:103DC000491F511D660F771F881F991F0694A1F781
:103DD0000590079428F4E70EF81E491F561FC11DD1
:103DE000770F881F991F661F0694A1F70590079407
:103DF00028F4F80E491F561FC71FD11D880F991FA1
:103E0000661F771F0694A1F70590079420F4490FC9
:103E1000561FC71FD81F990F661F771F881F06944C
:103E2000A9F784911095177041F0D695C7955795CD
:103E30004795F794E7941A95C1F7E6E0F1E06894A6
:103E40001590159135916591959105907FE2739547
:103E5000E118F10A430B560BC90BD009C0F7E10C6E
:103E6000F11E431F561FC91FD01D7EF4703311F47D
:103E70008A95E6CFE894015030F0080F0AF4002745
:103E8000021708F4202F2395022F7A3328F079E3C4
:103E90007D932A95E9F710C07D932A9589F60694BB
:103EA00097956795379517951794E118F10A430B85
:103EB000560BC90BD00998F023957E9173957A33F0
:103EC00008F070E37C932013B8F77E9170617D93C6
:103ED00030F0839571E37D9370E32A95E1F7112427
:103EE000EF90FF900F911F91CF91DF91992787FD60
:103EF00090950895DC01FC01672F71917723E1F71C
:103F0000329704C07C916D9370836291AE17BF07A6
:103F1000C8F30895E89409C097FB3EF49095809506
:103F2000709561957F4F8F4F9F4F9923A9F0F92F7F
:103F300096E9BB279395F695879577956795B795FD
:103F4000F111F8CFFAF4BB0F11F460FF1BC06F5FE3
:103F50007F4F8F4F9F4F16C0882311F096E911C0F5
:103F6000772321F09EE8872F762F05C0662371F016
:103F700096E8862F70E060E02AF09A95660F771F2A
:103F8000881FDAF7880F9695879597F908950E940C
:103F9000DA1F0C944B200E943D2038F00E944420F0
:103FA00020F0952311F00C9434200C943A20112425
:103FB0000C947F200E945C2070F3959FC1F3950FB5
:103FC00050E0551F629FF001729FBB27F00DB11D9D
:103FD000639FAA27F00DB11DAA1F649F6627B00D2D
:103FE000A11D661F829F2227B00DA11D621F739F16
:103FF000B00DA11D621F839FA00D611D221F749F24
:104000003327A00D611D231F849F600D211D822F6A
:10401000762F6A2F11249F5750409AF0F1F0882391
:104020004AF0EE0FFF1FBB1F661F771F881F9150BE
:104030005040A9F79E3F510580F00C9434200C9419
:104040007F205F3FE4F3983ED4F38695779567959C
:10405000B795F795E7959F5FC1F7FE2B880F911DE8
:104060009695879597F9089597F99F6780E870E08E
:1040700060E008959FEF80EC089500240A941616DE
:10408000170618060906089500240A941216130646
:10409000140605060895092E0394000C11F48823D4
:1040A00052F0BB0F40F4BF2B11F460FF04C06F5FF0
:1040B0007F4F8F4F9F4F089557FD9058440F551FC6
:1040C00059F05F3F71F04795880F97FB991F61F09A
:1040D0009F3F79F087950895121613061406551F11
:1040E000F2CF4695F1DF08C0161617061806991F7D
:1040F000F1CF86957105610508940895E894BB2772
:1041000066277727CB0197F908950E94C720A59FBE
:10411000900DB49F900DA49F800D911D11240895C2
:104120002F923F924F925F926F927F928F929F92C7
:10413000AF92BF92CF92DF92EF92FF920F931F93B5
:10414000CF93DF93CDB7DEB7CA1BDB0B0FB6F89466
:10415000DEBF0FBECDBF09942A88398848885F84A6
:104160006E847D848C849B84AA84B984C884DF8017
:10417000EE80FD800C811B81AA81B981CE0FD11DFB
:104180000FB6F894DEBF0FBECDBFED010895A29F1C
:10419000B001B39FC001A39F700D811D1124911D1B
:1041A000B29F700D811D1124911D08955058BB2799
:1041B000AA270E94EE200C944B200E943D2038F04C
:1041C0000E94442020F039F49F3F19F426F40C9407
:1041D0003A200EF4E095E7FB0C943420E92F0E947E
:1041E0005C2058F3BA17620773078407950720F01D
:1041F00079F4A6F50C947E200EF4E0950B2EBA2FE0
:10420000A02D0B01B90190010C01CA01A0011124DC
:10421000FF27591B99F0593F50F4503E68F11A1688
:10422000F040A22F232F342F4427585FF3CF469519
:1042300037952795A795F0405395C9F77EF41F163B
:10424000BA0B620B730B840BBAF09150A1F0FF0F05
:10425000BB1F661F771F881FC2F70EC0BA0F621FF1
:10426000731F841F48F4879577956795B795F795E1
:104270009E3F08F0B0CF9395880F08F09927EE0F76
:104280009795879508950E9457210C944B200E9482
:10429000442058F00E943D2040F029F45F3F29F06F
:1042A0000C94342051110C947F200C943A200E94DD
:1042B0005C2068F39923B1F3552391F3951B550BBB
:1042C000BB27AA2762177307840738F09F5F5F4FE9
:1042D000220F331F441FAA1FA9F335D00E2E3AF028
:1042E000E0E832D091505040E695001CCAF72BD040
:1042F000FE2F29D0660F771F881FBB1F2617370791
:104300004807AB07B0E809F0BB0B802DBF01FF27C2
:1043100093585F4F3AF09E3F510578F00C9434204B
:104320000C947F205F3FE4F3983ED4F38695779515
:104330006795B795F7959F5FC9F7880F911D96957B
:10434000879597F90895E1E0660F771F881FBB1FD7
:10435000621773078407BA0720F0621B730B840B84
:10436000BA0BEE1F88F7E095089516F00C9405221D
:104370000C943A2068940C9434200E946420A8F392
:104380009923C1F3AEF3DF93CF931F930F93FF9263
:10439000C92FDD2788232AF02197660F771F881FF2
:1043A000DAF720E030E040E85FEB9FE3883920F067
:1043B000803E38F021968F770E94D720ECEAF0E01B
:1043C00004C00E94D720E9EDF0E00E9413228B0187
:1043D000BE01EC01FB2E6F5771097595771F880B95
:1043E000990B0E948C1F28E132E741E35FE30E94B2
:1043F000DA1FAF2D9801AE01FF900F911F91CF9161
:10440000DF910E94EE200C944B209F3F31F09150A1
:1044100020F4879577956795B795880F911D9695A8
:10442000879597F90895DF93CF931F930F93FF928A
:10443000EF92DF927B018C01689406C0DA2EEF01C7
:104440000E94DA1FFE01E894A591259135914591CE
:104450005591A6F3EF010E94EE20FE019701A801FD
:10446000DA9469F7DF90EF90FF900F911F91CF9151
:10447000DF910895A1E21A2EAA1BBB1BFD010DC0FE
:10448000AA1FBB1FEE1FFF1FA217B307E407F50704
:1044900020F0A21BB30BE40BF50B661F771F881FE0
:1044A000991F1A9469F760957095809590959B0176
:1044B000AC01BD01CF010895EE0FFF1F0590F491EF
:1044C000E02D09940F931F93CF93DF9382309105D2
:1044D00010F482E090E0E0919E03F0919F0330E0C1
:1044E00020E0B0E0A0E0309799F42115310509F4FF
:1044F0004AC0281B390B24303105D8F58A819B81AD
:104500006115710589F1FB0193838283FE0111C05E
:10451000408151810281138148175907E0F0481703
:10452000590799F4109761F012960C93129713960D
:104530001C933296CF01DF91CF911F910F91089577
:1045400000939E0310939F03F4CF2115310551F082
:104550004217530738F0A901DB019A01BD01DF01C1
:10456000F801C1CFEF01F9CF90939F0380939E0391
:10457000CDCFFE01E20FF31F8193919322503109B9
:1045800039832883D7CF20919C0330919D03232B1F
:1045900041F420910E0130910F0130939D0320933F
:1045A0009C0320910C0130910D012115310541F43E
:1045B0002DB73EB74091100150911101241B350BCE
:1045C000E0919C03F0919D03E217F307A0F42E1BEA
:1045D0003F0B2817390778F0AC014E5F5F4F241767
:1045E000350748F04E0F5F1F50939D0340939C0387
:1045F000819391939FCFF0E0E0E09CCFCF93DF9346
:104600000097E9F0FC01329713821282A0919E0379
:10461000B0919F03ED0130E020E01097A1F42081DC
:104620003181820F931F20919C0330919D032817A5
:10463000390709F061C0F0939D03E0939C03DF917B
:10464000CF910895EA01CE17DF07E8F54A815B8133
:104650009E0141155105B1F7E901FB83EA834991B8
:104660005991C40FD51FEC17FD0761F4808191812A
:104670000296840F951FE901998388838281938133
:104680009B838A83F0E0E0E012968D919C911397D2
:104690000097B9F52D913C911197CD010296820FAB
:1046A000931F20919C0330919D032817390739F6F9
:1046B000309751F510929F0310929E03B0939D0383
:1046C000A0939C03BCCFD383C28340815181840FCC
:1046D000951FC817D90761F44E5F5F4F8881998194
:1046E000480F591F518340838A819B819383828322
:1046F0002115310509F0B0CFF0939F03E0939E039D
:104700009ECFFD01DC01C0CF13821282D7CFB0E073
:10471000A0E0EDE8F3E20C9492208C01009751F4B4
:10472000CB010E9462228C01C801CDB7DEB7E0E167
:104730000C94AE20FC01E60FF71F9C0122503109BA
:10474000E217F30708F49DC0D901CD91DC911197D0
:10475000C617D70798F0C530D10530F3CE010497BE
:104760008617970708F3C61BD70B2297C193D193DF
:104770006D937C93CF010E94FE22D6CF5B01AC1AD1
:10478000BD0A4C018C0E9D1EA0919E03B0919F030B
:10479000512C412CF12CE12C109731F580919C0388
:1047A00090919D038815990509F05CC0461657063F
:1047B00008F058C080910C0190910D01009741F4D0
:1047C0008DB79EB74091100150911101841B950B3C
:1047D000E817F90708F055C0F0939D03E0939C0398
:1047E000F90171836083A0CF8D919C9111971296EE
:1047F0006C90129713967C901397A815B90559F5EC
:104800006C0142E0C40ED11CCA14DB0420F1AC01DF
:104810004A195B09DA011296159780F06282738259
:1048200051834083D9016D937C93E114F10471F0BD
:10483000D7011396FC93EE93129776CF22968C0FA6
:104840009D1FF90191838083F301EFCFF0939F03C4
:10485000E0939E0369CF4816590608F42C017D01A8
:10486000D3019ACFCB010E9462227C01009749F0CC
:10487000AE01B8010E945E24C8010E94FE22870199
:1048800053CF10E000E050CF0F931F93CF93DF93EF
:104890008C01FC0101900020E9F7CF01801B910BF6
:1048A0000E946222EC01009719F0B8010E9467246F
:1048B000CE01DF91CF911F910F910895FB01DC0193
:1048C00002C001900D9241505040D8F70895FB016D
:1048D000DC0101900D920020E1F7089511E0C4E899
:1048E000D1E004C0FE010E945C222196C538D107A8
:0648F000C9F7F894FFCFA8
:1048F600FFFFFFFF00E10000000000000000A00332
:104906008000000000003C000100000000000000E4
:10491600005858585858585831303000C1808100D6
:1049260000000000000058033E0679036E03BF0333
:104936007D039B03000000007B05DC040905C70519
:104946003A0518052C0500000000490E120D2B0B28
:104956001E0B280E100ECA0D1314440FDD0D6B0E20
:104966005D0D280B1F0B00000000E80E61726475D8
:10497600696E6F2D79756E2D76697A696E76697AAC
:104986000065636639323966650066363562646588
:1049960031396438653436643637004D5154540025
:1049A60062726F6B65722E7368696674722E696FB8
:0E49B600002F74656D70657261747572650016
:1070000055C000006EC000006CC000006AC00000E7
:1070100068C0000066C0000064C0000062C00000DC
:1070200060C000005EC00000FCC400005AC0000048
:1070300058C0000056C0000054C0000052C00000FC
:1070400050C000005DC000004CC000004AC00000FD
:1070500048C0000046C0000044C0000042C000001C
:1070600040C000003EC000003CC000003AC000002C
:1070700038C0000036C0000034C0000032C000003C
:1070800030C000002EC000002CC000002AC000004C
:1070900028C0000026C0000024C0000022C000005C
:1070A00020C000001EC000001CC0000011241FBE34
:1070B000CFEFDAE0DEBFCDBF11E0A0E0B1E0E6E463
:1070C000FFE702C005900D92A63AB107D9F711E08B
:1070D000A6EAB1E001C01D92AF3BB107E1F74FD383
:1070E00030C78ECFF89410926F001092810081E02B
:1070F00085BF15BE47985D9A289A0C9400000895A4
:107100001F920F920FB60F9211242F938F939F937C
:10711000EF93FF9310928500109284008091A60156
:107120009091A701009741F001979093A701809358
:10713000A601892B09F45D9A8091A8019091A9017B
:10714000009741F001979093A9018093A801892BA2
:1071500009F4289A8091AC019091AD010196909329
:10716000AD018093AC01E0E0F0E0859194918F5FF8
:107170009F4F49F08091AA019091AB0101969093A5
:10718000AB018093AA01FF91EF919F918F912F9175
:107190000F900FBE0F901F90189584E08093E90028
:1071A0000DC08091E8008B778093E80003C08EB318
:1071B000882351F08091E80082FFF9CF8091E800A8
:1071C00085FFEFCF8091F1000895982F83E08093A1
:1071D000E9008091E80085FD0DC08091E8008E7780
:1071E0008093E80003C08EB3882369F08091E800A3
:1071F00080FFF9CF9093F1005D9884E690E0909342
:10720000A7018093A60108954F925F926F927F929B
:107210008F929F92AF92BF92CF92DF92EF92FF92A6
:107220000F931F93CF93DF9384E08093E9008091C5
:10723000E80082FF57C2289884E690E09093A90165
:107240008093A801AADF182F853481F48CE49DE196
:107250009093AB018093AA0107B600FCFDCFF9998A
:10726000FECF81E180935700E89503C0843519F47F
:1072700094DF8DE00DC28C34E1F38035D1F3843797
:1072800021F484E4A2DF80E003C2813611F489E5B1
:10729000FFC18134B1F481DF182F7FDF90E0880FC8
:1072A000991FAA2797FDA095BA2F312F330F20E001
:1072B000442737FD4095542F822B932BA42BB52BBD
:1072C000B8C1803711F483E5E3C1833549F4C0E0E8
:1072D000D1E089917ADF21E0C730D207D1F7D9C157
:1072E000863521F481E371DF80E3D2C1833731F445
:1072F00087E86BDF85E969DF8EE1CAC18536B9F4BD
:10730000E0E0F0E093E085E090935700E89507B661
:1073100000FCFDCF80935700E89507B600FCFDCF39
:10732000E058FF4FA0E7E030FA0771F7A2CF8237AD
:1073300039F4E1E0F0E089E0809357008491A8C13E
:10734000863439F4E0E0F0E089E0809357008491DE
:107350009FC18E3439F4E3E0F0E089E08093570078
:10736000849196C1813539F4E2E0F0E089E08093C0
:10737000570084918DC1823631F489E526DF80E0A3
:1073800024DF80E885C1823419F0873609F0E5C032
:107390001092AB011092AA0100DF082FFEDEF82E3A
:1073A000FCDE682E8554823008F071C1902F80E099
:1073B000CF2DD0E0C82BD92B10926F00173609F0D3
:1073C0004BC081E180935700E895DD24CC24C39421
:1073D0003FC0E090AF01F090B0010091B101109179
:1073E000B201B6E46B16D9F4ED2DF0E0EE29FF29D9
:1073F000E4918E2FEADEDD2081F082E090E0A0E0D3
:10740000B0E0E80EF91E0A1F1B1FE092AF01F092D8
:10741000B0010093B1011093B201DC2418C0D8016F
:10742000C701B695A7959795879575D5CEDE82E06D
:1074300090E0A0E0B0E0E80EF91E0A1F1B1FE092EA
:10744000AF01F092B0010093B1011093B201219706
:10745000209709F0BECF7DC08090AF019090B00121
:10746000A090B101B090B20196E4691609F05DC038
:1074700083E0F40180935700E89507B600FCFDCF48
:1074800054C0F6E46F1661F5772031F1E090AF015A
:10749000F090B0010091B1011091B2017EDED82EC2
:1074A000CC24852D90E08C299D29F7010C01409278
:1074B0005700E895112482E090E0A0E0B0E0E80EEB
:1074C000F91E0A1F1B1FE092AF01F092B00100935A
:1074D000B1011093B20102C060DE582E742423C0A3
:1074E000E090AF01F090B0010091B1011091B201B4
:1074F00016950795F794E79450DE682FC70113D5CA
:107500008091AF019091B001A091B101B091B20111
:107510000296A11DB11D8093AF019093B001A0937D
:10752000B101B093B201219704C0552477244424BB
:107530004394209709F0A5CF96E4691641F485E0BD
:10754000F40180935700E89507B600FCFDCF8DE06D
:107550003CDE82E080936F009CC0833471F4009124
:10756000AF011091B00119DE90E021E0F8010C01AB
:1075700020935700E89511247CCE833619F5E090CE
:10758000AF01F090B0010091B1011091B20105DEA0
:10759000F701E16090E021E00C0120935700E895AD
:1075A000112482E090E0A0E0B0E0E80EF91E0A1F8E
:1075B0001B1FE092AF01F092B0010093B101109354
:1075C000B20157CE8D3661F4E091AF01F091B00178
:1075D00085E080935700E89507B600FCFDCF49CEC3
:1075E000823551F4E091AF01F091B0010591149111
:1075F000812FEBDD802F4CC0843421F5E090AF016A
:10760000F090B0010091B1011091B201169507956B
:10761000F794E794C2DD682FC70185D48091AF014C
:107620009091B001A091B101B091B2010296A11D5B
:10763000B11D8093AF019093B001A093B101B093BD
:10764000B20117CE843609F5E090AF01F090B00199
:107650000091B1011091B201D801C701B695A7956B
:107660009795879558D4B1DD82E090E0A0E0B0E036
:10767000E80EF91E0A1F1B1FE092AF01F092B00145
:107680000093B1011093B20104C08B3111F08FE36C
:107690009CDD83E08093E9009091E8008091E80010
:1076A0008E778093E80095FF04C010C08EB38823C6
:1076B000C9F08091E80080FFF9CF8091E8008E77D3
:1076C0008093E80003C08EB3882361F08091E800C6
:1076D00080FFF9CF84E08093E9008091E8008B7708
:1076E0008093E800DF91CF911F910F91FF90EF9071
:1076F000DF90CF90BF90AF909F908F907F906F90D2
:107700005F904F9008959091B701892F8F778132C4
:1077100049F58091B8018032A1F0813219F5913A92
:1077200009F58091E800877F8093E8008CE091E084
:1077300067E070E027D28091E8008B778093E800C3
:107740000895913279F48091E800877F8093E80072
:107750008CE091E067E070E079D28091E8008E776C
:107760008093E800089582E061EC42E0D1D083E0AC
:1077700061E842E1CDD084E060E842E1C9C01F93F6
:10778000209100081092000844B714BE88E10FB69B
:10779000F89480936000109260000FBE80E8E0E0F3
:1077A000F0E00FB6F89480936100E09361000FBEA3
:1077B00031E035BF92E095BF3F9A209A559A809369
:1077C00061001092610047985D9A289A1092890092
:1077D0008AEF8093880090936F0083E0809381000C
:1077E000859194918F5F9F4F11F03093AE01942F4C
:1077F00041FF19C0809109012817A9F08093000862
:10780000789480911301882339F08091AC01909194
:10781000AD018F5E9240C8F310920008F89481E0A9
:10782000809313010CC090FF04C08091AE018823A7
:1078300051F493FF09C080910901281729F0809124
:10784000AE01882309F04EDCD4D078941092AB01BD
:107850001092AA011EEF20C0D7DC4BD38091AA0161
:107860009091AB0181549F4110F0109213018091CF
:10787000B3019091B40101969093B4018093B30148
:10788000292F97FF03C0512F591B252F220F28178F
:1078900010F4479801C0479A809113018823E1F6BC
:1078A0008091E00081608093E0001CDC80E090E04B
:1078B0001F910895FA01923049F0933061F09130B0
:1078C000F9F484E191E022E130E01EC086E291E02B
:1078D0002EE330E019C0882329F484E691E024E007
:1078E00030E012C0813029F488E691E022E230E0F5
:1078F0000BC0823029F48CE891E028E130E004C02C
:1079000080E090E020E030E091838083C901089519
:107910008093E9008091EB0081608093EB001092EE
:10792000ED006093EC004093ED008091EE00881F25
:107930008827881F08958091B70188238CF403C09D
:107940008EB38823B1F08091E80082FFF9CF809157
:10795000E8008B778093E80008958EB3882349F080
:107960008091E80080FFF9CF8091E8008E778093C6
:10797000E8000895EF92FF920F931F9345D04CD0EB
:1079800008ED10E0F80180818F7780838081806826
:10799000808380818F7D808319BC1EBA1092B501CF
:1079A00080EEE82EF12CF70180818B7F8083F80137
:1079B00080818160808380E060E042E0A9DFE1EEC9
:1079C000F0E080818E7F8083E2EEF0E08081816054
:1079D0008083808188608083F70180818E7F8083AF
:1079E000F8018081806180831F910F91FF90EF905B
:1079F0000895E7EDF0E08081816080838AE482BFB2
:107A000081E08093B601B6CFE8EDF0E080818E7F13
:107A100080831092E20008951092DA001092E10043
:107A200008951F920F920FB60F9211242F933F9338
:107A30004F935F936F937F938F939F93AF93BF9376
:107A4000EF93FF938091DA0080FF1BC08091D800F4
:107A500080FF17C08091DA008E7F8093DA008091DA
:107A6000D90080FF0BC080E189BD82E189BD09B4E6
:107A700000FEFDCF81E08EBB3BD203C019BC1EBA15
:107A800037D28091E10080FF17C08091E20080FF33
:107A900013C08091E2008E7F8093E2008091E2002B
:107AA00080618093E2008091D80080628093D8004A
:107AB00019BC85E08EBB1CD28091E10084FF2CC0F4
:107AC0008091E20084FF28C080E189BD82E189BD08
:107AD00009B400FEFDCF8091D8008F7D8093D8003F
:107AE0008091E1008F7E8093E1008091E2008F7EA3
:107AF0008093E2008091E20081608093E2008091B7
:107B0000B501882331F48091E30087FD02C081E054
:107B100001C084E08EBBECD18091E10083FF21C0E5
:107B20008091E20083FF1DC08091E100877F8093F8
:107B3000E10082E08EBB1092B5018091E1008E7F62
:107B40008093E1008091E2008E7F8093E20080913B
:107B5000E20080618093E20080E060E042E0D8DEF5
:107B6000C7D1FF91EF91BF91AF919F918F917F917D
:107B70006F915F914F913F912F910F900FBE0F909A
:107B80001F9018959C014091BD015091BE01461770
:107B9000570718F4F90190E044C06115710511F020
:107BA000AB01F8CF8091E8008E778093E80040E049
:107BB00050E0F0CF8EB3882309F444C0853009F437
:107BC00043C08091E80083FF02C081E00895809166
:107BD000E80082FD31C08091E80080FF22C08091E2
:107BE000F3009091F200782F60E0292F30E0262BEF
:107BF000372B07C081918093F100415050402F5F97
:107C00003F4F4115510519F02830310598F390E0A8
:107C10002830310509F491E08091E8008E77809357
:107C2000E8004115510531F6992321F605C08EB3C0
:107C3000882341F0853041F08091E80082FFF7CF42
:107C400080E0089582E0089583E008959C01611525
:107C5000710529F48091E8008B778093E800F901A1
:107C600026C08EB3882391F1853091F18091E80090
:107C700083FF02C081E008958091E80082FFF1CF88
:107C800006C08091F10081936150704059F02091BD
:107C9000F3008091F200322F20E090E0822B932BB2
:107CA000892B79F78091E8008B778093E800611544
:107CB0007105B9F605C08EB3882341F0853041F0D7
:107CC0008091E80080FFF7CF80E0089582E008957A
:107CD00083E008950F931F93DF93CF9300D0CDB728
:107CE000DEB7E7EBF1E08091F100819381E0EF3BBB
:107CF000F807C9F708DD8091E80083FFE4C08091B0
:107D0000B7019091B801953009F46DC0963040F4F8
:107D1000913081F1913070F0933009F0D4C02AC0D5
:107D2000983009F4A3C0993009F4B2C0963009F034
:107D3000CAC07CC0803809F4C6C0823809F0C3C00C
:107D40008091BB0187708093E9008091EB001092D5
:107D5000E9002091E800277F2093E80090E025E0EB
:107D6000969587952A95E1F781708093F10010929E
:107D7000F10087C0882319F0823009F0A4C08F7108
:107D8000823009F0A0C08091B901882331F520919B
:107D9000BB01277009F497C02093E9008091EB00A4
:107DA00080FF1BC0933021F48091EB00806213C0F0
:107DB0008091EB0080618093EB0081E090E002C055
:107DC000880F991F2A95E2F78093EA001092EA0043
:107DD0008091EB0088608093EB001092E900809125
:107DE000E800877F51C0882309F06DC01091B90168
:107DF0001F770FB7F8948091E800877F8093E800A1
:107E00009ADD8091E80080FFFCCF8091E3008078CC
:107E1000812B8093E30080688093E300112311F4A9
:107E200082E001C083E08EBB0FBF4DC0805882301E
:107E300008F049C08091B9019091BA016091BB01ED
:107E4000AE014F5F5F4F36DDBC01009709F43BC0C8
:107E50008091E800877F8093E80089819A8192DE93
:107E60008091E8008B778093E8002DC0803859F529
:107E70008091E800877F8093E8008091B50180932E
:107E8000F1008091E8008E778093E80054DD1BC0FC
:107E90008823C9F49091B9019230A8F48091E80048
:107EA000877F8093E8009093B50145DD8091B5010F
:107EB000882331F48091E30087FD02C081E001C096
:107EC00084E08EBB50DC8091E80083FF0AC0809183
:107ED000EB0080628093EB008091E800877F8093C5
:107EE000E8000F900F90CF91DF911F910F910895AF
:107EF00008951F938EB3882361F01091E9001092CA
:107F0000E9008091E80083FF01C0E4DE1770109360
:107F1000E9001F910895F999FECF92BD81BDF89AAD
:107F2000992780B50895262FF999FECF1FBA92BDE3
:107F300081BD20BD0FB6F894FA9AF99A0FBE01964A
:067F40000895F894FFCF44
:107F46004341544552494E41007700080000000065
:107F5600000008011201100102000008412341003F
:107F660001000201000109023E00020100803209FF
:107F7600040000010202010005240010010424028D
:107F8600040524060001070582030800FF09040111
:107F960000020A000000070504021000010705831D
:107FA6000210000104030904220341007200640068
:107FB600750069006E006F002000590075006E00A4
:107FC60020002000200020002000000018034100AF
:107FD60072006400750069006E006F0020004C009E
:067FE6004C004300000006
:040000030000700089
:00000001FF
